{
  "contractName": "TrustSurvey",
  "abi": [
    {
      "inputs": [],
      "stateMutability": "nonpayable",
      "type": "constructor"
    },
    {
      "inputs": [],
      "name": "owner",
      "outputs": [
        {
          "internalType": "address payable",
          "name": "",
          "type": "address"
        }
      ],
      "stateMutability": "view",
      "type": "function"
    },
    {
      "inputs": [],
      "name": "getBalance",
      "outputs": [
        {
          "internalType": "uint256",
          "name": "",
          "type": "uint256"
        }
      ],
      "stateMutability": "view",
      "type": "function"
    },
    {
      "inputs": [],
      "name": "deposit",
      "outputs": [],
      "stateMutability": "payable",
      "type": "function"
    },
    {
      "inputs": [
        {
          "internalType": "address",
          "name": "_to",
          "type": "address"
        },
        {
          "internalType": "uint256",
          "name": "_value",
          "type": "uint256"
        }
      ],
      "name": "transfer",
      "outputs": [
        {
          "internalType": "bool",
          "name": "",
          "type": "bool"
        }
      ],
      "stateMutability": "nonpayable",
      "type": "function"
    },
    {
      "inputs": [
        {
          "internalType": "string",
          "name": "surveyId",
          "type": "string"
        },
        {
          "internalType": "string",
          "name": "questionHash",
          "type": "string"
        },
        {
          "internalType": "uint256",
          "name": "reward",
          "type": "uint256"
        },
        {
          "internalType": "uint256",
          "name": "maxRespondent",
          "type": "uint256"
        }
      ],
      "name": "registerSurvey",
      "outputs": [
        {
          "internalType": "bool",
          "name": "",
          "type": "bool"
        }
      ],
      "stateMutability": "payable",
      "type": "function"
    },
    {
      "inputs": [
        {
          "internalType": "string",
          "name": "surveyId",
          "type": "string"
        },
        {
          "internalType": "string",
          "name": "responseHash",
          "type": "string"
        }
      ],
      "name": "participateSurvey",
      "outputs": [
        {
          "internalType": "bool",
          "name": "",
          "type": "bool"
        }
      ],
      "stateMutability": "nonpayable",
      "type": "function"
    },
    {
      "inputs": [
        {
          "internalType": "string",
          "name": "surveyId",
          "type": "string"
        }
      ],
      "name": "closeSurvey",
      "outputs": [],
      "stateMutability": "nonpayable",
      "type": "function"
    }
  ],
  "bytecode": "0x608060405234801561000f575f80fd5b503360035f6101000a81548173ffffffffffffffffffffffffffffffffffffffff021916908373ffffffffffffffffffffffffffffffffffffffff1602179055506121da8061005d5f395ff3fe60806040526004361061006f575f3560e01c80638da5cb5b1161004d5780638da5cb5b14610109578063a9059cbb14610133578063d0e30db01461016f578063edc5fcb8146101795761006f565b806312065fe0146100735780632180afde1461009d578063239bfa6a146100d9575b5f80fd5b34801561007e575f80fd5b506100876101a1565b60405161009491906113e7565b60405180910390f35b3480156100a8575f80fd5b506100c360048036038101906100be919061154d565b6101a8565b6040516100d091906115dd565b60405180910390f35b6100f360048036038101906100ee9190611620565b61069c565b60405161010091906115dd565b60405180910390f35b348015610114575f80fd5b5061011d610859565b60405161012a91906116fb565b60405180910390f35b34801561013e575f80fd5b506101596004803603810190610154919061174f565b61087e565b60405161016691906115dd565b60405180910390f35b6101776108e0565b005b348015610184575f80fd5b5061019f600480360381019061019a919061178d565b61093a565b005b5f47905090565b5f806101b333610d2f565b846040516020016101c5929190611840565b60405160208183030381529060405290505f8080866040516101e79190611863565b90815260200160405180910390206005015411610239576040517f08c379a0000000000000000000000000000000000000000000000000000000008152600401610230906118d3565b60405180910390fd5b5f15155f8660405161024b9190611863565b90815260200160405180910390206006015f9054906101000a900460ff161515146102ab576040517f08c379a00000000000000000000000000000000000000000000000000000000081526004016102a29061193b565b60405180910390fd5b5f80866040516102bb9190611863565b90815260200160405180910390206040518060e00160405290815f82015f9054906101000a900473ffffffffffffffffffffffffffffffffffffffff1673ffffffffffffffffffffffffffffffffffffffff1673ffffffffffffffffffffffffffffffffffffffff16815260200160018201805461033890611986565b80601f016020809104026020016040519081016040528092919081815260200182805461036490611986565b80156103af5780601f10610386576101008083540402835291602001916103af565b820191905f5260205f20905b81548152906001019060200180831161039257829003601f168201915b5050505050815260200160028201805480602002602001604051908101604052809291908181526020015f905b82821015610484578382905f5260205f200180546103f990611986565b80601f016020809104026020016040519081016040528092919081815260200182805461042590611986565b80156104705780601f1061044757610100808354040283529160200191610470565b820191905f5260205f20905b81548152906001019060200180831161045357829003601f168201915b5050505050815260200190600101906103dc565b505050508152602001600382015481526020016004820154815260200160058201548152602001600682015f9054906101000a900460ff16151515158152505090505f5b81604001515181101561051a576104fd826040015182815181106104ef576104ee6119b6565b5b602002602001015185610eeb565b1561050757600192505b808061051290611a10565b9150506104c8565b505f151582151514610561576040517f08c379a000000000000000000000000000000000000000000000000000000000815260040161055890611ac7565b60405180910390fd5b60405180604001604052803373ffffffffffffffffffffffffffffffffffffffff1681526020018681525060018460405161059c9190611863565b90815260200160405180910390205f820151815f015f6101000a81548173ffffffffffffffffffffffffffffffffffffffff021916908373ffffffffffffffffffffffffffffffffffffffff16021790555060208201518160010190816106039190611c82565b509050505f866040516106169190611863565b908152602001604051809103902060020183908060018154018082558091505060019003905f5260205f20015f9091909190915090816106569190611c82565b508060a001515f8760405161066b9190611863565b9081526020016040518091039020600201805490500361068f5761068e86610f43565b5b6001935050505092915050565b5f670de0b6b3a764000082846106b29190611d51565b6106bc9190611d51565b3410156106fe576040517f08c379a00000000000000000000000000000000000000000000000000000000081526004016106f590611ddc565b60405180910390fd5b6107066112ad565b33815f019073ffffffffffffffffffffffffffffffffffffffff16908173ffffffffffffffffffffffffffffffffffffffff1681525050848160200181905250670de0b6b3a76400008461075a9190611d51565b81606001818152505034816080018181525050828160a0018181525050805f876040516107879190611863565b90815260200160405180910390205f820151815f015f6101000a81548173ffffffffffffffffffffffffffffffffffffffff021916908373ffffffffffffffffffffffffffffffffffffffff16021790555060208201518160010190816107ee9190611c82565b50604082015181600201908051906020019061080b9291906112fd565b50606082015181600301556080820151816004015560a0820151816005015560c0820151816006015f6101000a81548160ff0219169083151502179055509050506001915050949350505050565b60035f9054906101000a900473ffffffffffffffffffffffffffffffffffffffff1681565b5f816108886101a1565b1015610892575f80fd5b8273ffffffffffffffffffffffffffffffffffffffff166108fc8390811502906040515f60405180830381858888f193505050501580156108d5573d5f803e3d5ffd5b506001905092915050565b60035f9054906101000a900473ffffffffffffffffffffffffffffffffffffffff1673ffffffffffffffffffffffffffffffffffffffff163373ffffffffffffffffffffffffffffffffffffffff1614610938575f80fd5b565b5f808260405161094a9190611863565b9081526020016040518091039020600501541161099c576040517f08c379a0000000000000000000000000000000000000000000000000000000008152600401610993906118d3565b60405180910390fd5b5f80826040516109ac9190611863565b90815260200160405180910390206040518060e00160405290815f82015f9054906101000a900473ffffffffffffffffffffffffffffffffffffffff1673ffffffffffffffffffffffffffffffffffffffff1673ffffffffffffffffffffffffffffffffffffffff168152602001600182018054610a2990611986565b80601f0160208091040260200160405190810160405280929190818152602001828054610a5590611986565b8015610aa05780601f10610a7757610100808354040283529160200191610aa0565b820191905f5260205f20905b815481529060010190602001808311610a8357829003601f168201915b5050505050815260200160028201805480602002602001604051908101604052809291908181526020015f905b82821015610b75578382905f5260205f20018054610aea90611986565b80601f0160208091040260200160405190810160405280929190818152602001828054610b1690611986565b8015610b615780601f10610b3857610100808354040283529160200191610b61565b820191905f5260205f20905b815481529060010190602001808311610b4457829003601f168201915b505050505081526020019060010190610acd565b505050508152602001600382015481526020016004820154815260200160058201548152602001600682015f9054906101000a900460ff1615151515815250509050805f015173ffffffffffffffffffffffffffffffffffffffff163373ffffffffffffffffffffffffffffffffffffffff1614610c28576040517f08c379a0000000000000000000000000000000000000000000000000000000008152600401610c1f90611e6a565b60405180910390fd5b60015f83604051610c399190611863565b90815260200160405180910390206006015f6101000a81548160ff0219169083151502179055505f5b816040015151811015610cee57610cda600183604001518381518110610c8b57610c8a6119b6565b5b6020026020010151604051610ca09190611863565b90815260200160405180910390205f015f9054906101000a900473ffffffffffffffffffffffffffffffffffffffff16836060015161087e565b508080610ce690611a10565b915050610c62565b505f8160400151518260600151610d059190611d51565b8260800151610d149190611e88565b90505f811115610d2a57610d28338261087e565b505b505050565b60605f602867ffffffffffffffff811115610d4d57610d4c611429565b5b6040519080825280601f01601f191660200182016040528015610d7f5781602001600182028036833780820191505090505b5090505f5b6014811015610ee1575f816013610d9b9190611e88565b6008610da79190611d51565b6002610db39190611fea565b8573ffffffffffffffffffffffffffffffffffffffff16610dd49190612061565b60f81b90505f60108260f81c610dea919061209d565b60f81b90505f8160f81c6010610e0091906120cd565b8360f81c610e0e9190612109565b60f81b9050610e1c82611268565b85856002610e2a9190611d51565b81518110610e3b57610e3a6119b6565b5b60200101907effffffffffffffffffffffffffffffffffffffffffffffffffffffffffffff191690815f1a905350610e7281611268565b856001866002610e829190611d51565b610e8c919061213d565b81518110610e9d57610e9c6119b6565b5b60200101907effffffffffffffffffffffffffffffffffffffffffffffffffffffffffffff191690815f1a9053505050508080610ed990611a10565b915050610d84565b5080915050919050565b5f81604051602001610efd9190611863565b6040516020818303038152906040528051906020012083604051602001610f249190611863565b6040516020818303038152906040528051906020012014905092915050565b5f8082604051610f539190611863565b90815260200160405180910390206040518060e00160405290815f82015f9054906101000a900473ffffffffffffffffffffffffffffffffffffffff1673ffffffffffffffffffffffffffffffffffffffff1673ffffffffffffffffffffffffffffffffffffffff168152602001600182018054610fd090611986565b80601f0160208091040260200160405190810160405280929190818152602001828054610ffc90611986565b80156110475780601f1061101e57610100808354040283529160200191611047565b820191905f5260205f20905b81548152906001019060200180831161102a57829003601f168201915b5050505050815260200160028201805480602002602001604051908101604052809291908181526020015f905b8282101561111c578382905f5260205f2001805461109190611986565b80601f01602080910402602001604051908101604052809291908181526020018280546110bd90611986565b80156111085780601f106110df57610100808354040283529160200191611108565b820191905f5260205f20905b8154815290600101906020018083116110eb57829003601f168201915b505050505081526020019060010190611074565b505050508152602001600382015481526020016004820154815260200160058201548152602001600682015f9054906101000a900460ff161515151581525050905060015f8360405161116f9190611863565b90815260200160405180910390206006015f6101000a81548160ff0219169083151502179055505f5b816040015151811015611224576112106001836040015183815181106111c1576111c06119b6565b5b60200260200101516040516111d69190611863565b90815260200160405180910390205f015f9054906101000a900473ffffffffffffffffffffffffffffffffffffffff16836060015161087e565b50808061121c90611a10565b915050611198565b505f816040015151826060015161123b9190611d51565b826080015161124a9190611e88565b90505f81111561126357611261825f01518261087e565b505b505050565b5f600a8260f81c60ff1610156112925760308260f81c6112889190612170565b60f81b90506112a8565b60578260f81c6112a29190612170565b60f81b90505b919050565b6040518060e001604052805f73ffffffffffffffffffffffffffffffffffffffff16815260200160608152602001606081526020015f81526020015f81526020015f81526020015f151581525090565b828054828255905f5260205f20908101928215611343579160200282015b828111156113425782518290816113329190611c82565b509160200191906001019061131b565b5b5090506113509190611354565b5090565b5b80821115611373575f818161136a9190611377565b50600101611355565b5090565b50805461138390611986565b5f825580601f1061139457506113b1565b601f0160209004905f5260205f20908101906113b091906113b4565b5b50565b5b808211156113cb575f815f9055506001016113b5565b5090565b5f819050919050565b6113e1816113cf565b82525050565b5f6020820190506113fa5f8301846113d8565b92915050565b5f604051905090565b5f80fd5b5f80fd5b5f80fd5b5f80fd5b5f601f19601f8301169050919050565b7f4e487b71000000000000000000000000000000000000000000000000000000005f52604160045260245ffd5b61145f82611419565b810181811067ffffffffffffffff8211171561147e5761147d611429565b5b80604052505050565b5f611490611400565b905061149c8282611456565b919050565b5f67ffffffffffffffff8211156114bb576114ba611429565b5b6114c482611419565b9050602081019050919050565b828183375f83830152505050565b5f6114f16114ec846114a1565b611487565b90508281526020810184848401111561150d5761150c611415565b5b6115188482856114d1565b509392505050565b5f82601f83011261153457611533611411565b5b81356115448482602086016114df565b91505092915050565b5f806040838503121561156357611562611409565b5b5f83013567ffffffffffffffff8111156115805761157f61140d565b5b61158c85828601611520565b925050602083013567ffffffffffffffff8111156115ad576115ac61140d565b5b6115b985828601611520565b9150509250929050565b5f8115159050919050565b6115d7816115c3565b82525050565b5f6020820190506115f05f8301846115ce565b92915050565b6115ff816113cf565b8114611609575f80fd5b50565b5f8135905061161a816115f6565b92915050565b5f805f806080858703121561163857611637611409565b5b5f85013567ffffffffffffffff8111156116555761165461140d565b5b61166187828801611520565b945050602085013567ffffffffffffffff8111156116825761168161140d565b5b61168e87828801611520565b935050604061169f8782880161160c565b92505060606116b08782880161160c565b91505092959194509250565b5f73ffffffffffffffffffffffffffffffffffffffff82169050919050565b5f6116e5826116bc565b9050919050565b6116f5816116db565b82525050565b5f60208201905061170e5f8301846116ec565b92915050565b5f61171e826116bc565b9050919050565b61172e81611714565b8114611738575f80fd5b50565b5f8135905061174981611725565b92915050565b5f806040838503121561176557611764611409565b5b5f6117728582860161173b565b92505060206117838582860161160c565b9150509250929050565b5f602082840312156117a2576117a1611409565b5b5f82013567ffffffffffffffff8111156117bf576117be61140d565b5b6117cb84828501611520565b91505092915050565b5f81519050919050565b5f81905092915050565b5f5b838110156118055780820151818401526020810190506117ea565b5f8484015250505050565b5f61181a826117d4565b61182481856117de565b93506118348185602086016117e8565b80840191505092915050565b5f61184b8285611810565b91506118578284611810565b91508190509392505050565b5f61186e8284611810565b915081905092915050565b5f82825260208201905092915050565b7f4572726f723a20737572766579496420646f6573206e6f7420657869737400005f82015250565b5f6118bd601e83611879565b91506118c882611889565b602082019050919050565b5f6020820190508181035f8301526118ea816118b1565b9050919050565b7f4572726f723a2073757276657920697320616c726561647920636c6f736564005f82015250565b5f611925601f83611879565b9150611930826118f1565b602082019050919050565b5f6020820190508181035f83015261195281611919565b9050919050565b7f4e487b71000000000000000000000000000000000000000000000000000000005f52602260045260245ffd5b5f600282049050600182168061199d57607f821691505b6020821081036119b0576119af611959565b5b50919050565b7f4e487b71000000000000000000000000000000000000000000000000000000005f52603260045260245ffd5b7f4e487b71000000000000000000000000000000000000000000000000000000005f52601160045260245ffd5b5f611a1a826113cf565b91507fffffffffffffffffffffffffffffffffffffffffffffffffffffffffffffffff8203611a4c57611a4b6119e3565b5b600182019050919050565b7f4572726f723a20526573706f6e64657220616c726561647920706172746963695f8201527f706174696e6720696e2073757276657900000000000000000000000000000000602082015250565b5f611ab1603083611879565b9150611abc82611a57565b604082019050919050565b5f6020820190508181035f830152611ade81611aa5565b9050919050565b5f819050815f5260205f209050919050565b5f6020601f8301049050919050565b5f82821b905092915050565b5f60088302611b417fffffffffffffffffffffffffffffffffffffffffffffffffffffffffffffffff82611b06565b611b4b8683611b06565b95508019841693508086168417925050509392505050565b5f819050919050565b5f611b86611b81611b7c846113cf565b611b63565b6113cf565b9050919050565b5f819050919050565b611b9f83611b6c565b611bb3611bab82611b8d565b848454611b12565b825550505050565b5f90565b611bc7611bbb565b611bd2818484611b96565b505050565b5b81811015611bf557611bea5f82611bbf565b600181019050611bd8565b5050565b601f821115611c3a57611c0b81611ae5565b611c1484611af7565b81016020851015611c23578190505b611c37611c2f85611af7565b830182611bd7565b50505b505050565b5f82821c905092915050565b5f611c5a5f1984600802611c3f565b1980831691505092915050565b5f611c728383611c4b565b9150826002028217905092915050565b611c8b826117d4565b67ffffffffffffffff811115611ca457611ca3611429565b5b611cae8254611986565b611cb9828285611bf9565b5f60209050601f831160018114611cea575f8415611cd8578287015190505b611ce28582611c67565b865550611d49565b601f198416611cf886611ae5565b5f5b82811015611d1f57848901518255600182019150602085019450602081019050611cfa565b86831015611d3c5784890151611d38601f891682611c4b565b8355505b6001600288020188555050505b505050505050565b5f611d5b826113cf565b9150611d66836113cf565b9250828202611d74816113cf565b91508282048414831517611d8b57611d8a6119e3565b5b5092915050565b7f4572726f723a204e6f7420656e6f7567682072657761726400000000000000005f82015250565b5f611dc6601883611879565b9150611dd182611d92565b602082019050919050565b5f6020820190508181035f830152611df381611dba565b9050919050565b7f4572726f723a2073656e646572206964206e6f74206d61746368696e672073755f8201527f72766579206f776e657220696400000000000000000000000000000000000000602082015250565b5f611e54602d83611879565b9150611e5f82611dfa565b604082019050919050565b5f6020820190508181035f830152611e8181611e48565b9050919050565b5f611e92826113cf565b9150611e9d836113cf565b9250828203905081811115611eb557611eb46119e3565b5b92915050565b5f8160011c9050919050565b5f808291508390505b6001851115611f1057808604811115611eec57611eeb6119e3565b5b6001851615611efb5780820291505b8081029050611f0985611ebb565b9450611ed0565b94509492505050565b5f82611f285760019050611fe3565b81611f35575f9050611fe3565b8160018114611f4b5760028114611f5557611f84565b6001915050611fe3565b60ff841115611f6757611f666119e3565b5b8360020a915084821115611f7e57611f7d6119e3565b5b50611fe3565b5060208310610133831016604e8410600b8410161715611fb95782820a905083811115611fb457611fb36119e3565b5b611fe3565b611fc68484846001611ec7565b92509050818404811115611fdd57611fdc6119e3565b5b81810290505b9392505050565b5f611ff4826113cf565b9150611fff836113cf565b925061202c7fffffffffffffffffffffffffffffffffffffffffffffffffffffffffffffffff8484611f19565b905092915050565b7f4e487b71000000000000000000000000000000000000000000000000000000005f52601260045260245ffd5b5f61206b826113cf565b9150612076836113cf565b92508261208657612085612034565b5b828204905092915050565b5f60ff82169050919050565b5f6120a782612091565b91506120b283612091565b9250826120c2576120c1612034565b5b828204905092915050565b5f6120d782612091565b91506120e283612091565b92508282026120f081612091565b9150808214612102576121016119e3565b5b5092915050565b5f61211382612091565b915061211e83612091565b9250828203905060ff811115612137576121366119e3565b5b92915050565b5f612147826113cf565b9150612152836113cf565b925082820190508082111561216a576121696119e3565b5b92915050565b5f61217a82612091565b915061218583612091565b9250828201905060ff81111561219e5761219d6119e3565b5b9291505056fea26469706673582212205d07f9a698f7dd96fabc76061880649db278fbeb0a3e34148c0bfa3bcc067e9264736f6c63430008140033",
  "immutableReferences": {},
  "source": "// SPDX-License-Identifier: MIT\npragma solidity >=0.8.7;\n\nimport \"hardhat/console.sol\";\n\ncontract TrustSurvey {\n    struct Response {\n        address walletId;\n        string responseHash;\n    }\n    struct Survey {\n        address owner;\n        string questionHash;\n        string[] responseIdList;\n        uint rewardPerUser;\n        uint depositedReward;\n        uint maxRespondent;\n        bool isClosed;\n    }\n\n    // Array of surveys\n    mapping(string => Survey) surveys;\n    mapping(string => Response) responses;\n    uint age;\n    address payable public owner;\n\n    constructor() {\n        owner = payable(msg.sender);\n    }\n\n    function toAsciiString(address x) internal pure returns (string memory) {\n        bytes memory s = new bytes(40);\n        for (uint i = 0; i < 20; i++) {\n            bytes1 b = bytes1(uint8(uint(uint160(x)) / (2**(8*(19 - i)))));\n            bytes1 hi = bytes1(uint8(b) / 16);\n            bytes1 lo = bytes1(uint8(b) - 16 * uint8(hi));\n            s[2*i] = char(hi);\n            s[2*i+1] = char(lo);            \n        }\n        return string(s);\n    }\n\n    function char(bytes1 b) internal pure returns (bytes1 c) {\n        if (uint8(b) < 10) return bytes1(uint8(b) + 0x30);\n        else return bytes1(uint8(b) + 0x57);\n    }\n\n    function compare(string memory str1, string memory str2) private pure returns (bool) {\n        return keccak256(abi.encodePacked(str1)) == keccak256(abi.encodePacked(str2));\n    }\n\n    function getBalance() public view returns (uint) {\n        return address(this).balance;\n    }\n\n    function deposit() public payable {\n        require(msg.sender == owner);\n    }\n\n\n    function transfer(address _to, uint _value) public returns (bool) {\n        require(getBalance() >= _value);\n        payable(_to).transfer(_value);\n        return true;\n    }\n\n\n    function registerSurvey(string memory surveyId, string memory questionHash, uint reward, uint maxRespondent) public payable returns (bool) {\n        // Check if survey generator is giving enough\n        require(msg.value >= reward * maxRespondent * 1 ether, \"Error: Not enough reward\");\n        // require(msg.value >= reward * maxRespondent, \"Error: Not enough reward\");\n\n\n        Survey memory s;\n        s.owner = msg.sender;\n        s.questionHash = questionHash;\n        s.rewardPerUser = reward * 1 ether;\n        // s.rewardPerUser = reward;\n        s.depositedReward = msg.value;\n        s.maxRespondent = maxRespondent;\n        surveys[surveyId] = s;\n        return true;\n    }\n\n    function participateSurvey(string memory surveyId, string memory responseHash) public returns (bool) {\n        // string memory responseId = string.concat(toString(msg.sender), surveyId);\n        string memory responseId = string.concat(toAsciiString(msg.sender), surveyId);\n        bool responseIdExists = false;\n        require(surveys[surveyId].maxRespondent > 0, \"Error: surveyId does not exist\");\n        require(surveys[surveyId].isClosed == false, \"Error: survey is already closed\");\n        // Check that participant already exists\n\n        Survey memory s = surveys[surveyId];\n\n\n        // Survey memory s = surveys[surveyId];\n        // string[] memory newResponseIdList = new string[](s.responseIdList.length + 1);\n        for (uint i = 0; i < s.responseIdList.length; i++) {\n            if (compare(s.responseIdList[i], responseId)) {\n                responseIdExists = true;\n            }\n        }\n        require(responseIdExists == false, \"Error: Responder already participating in survey\");\n\n        responses[responseId] = Response(msg.sender, responseHash);\n        surveys[surveyId].responseIdList.push(responseId);\n\n        // // Check if survey needs to be closed\n        if (surveys[surveyId].responseIdList.length == s.maxRespondent) {\n            closeSurveyInternal(surveyId);\n        }\n\n        return true;\n    }\n\n    function closeSurveyInternal(string memory surveyId) private {\n        // Check if survey's owner is the caller\n        Survey memory s = surveys[surveyId];\n        surveys[surveyId].isClosed = true;\n\n        // Distribute rewards\n        for (uint i = 0; i < s.responseIdList.length; i++) {\n            transfer(responses[s.responseIdList[i]].walletId, s.rewardPerUser);\n        }\n\n        // Return remaining reward to user\n        uint remaining = s.depositedReward - s.rewardPerUser * s.responseIdList.length;\n        if (remaining > 0) {\n            transfer(s.owner, remaining);\n        }\n    }\n\n    function closeSurvey(string memory surveyId) public {\n        require(surveys[surveyId].maxRespondent > 0, \"Error: surveyId does not exist\");\n        // Check if survey's owner is the caller\n        Survey memory s = surveys[surveyId];\n        require(msg.sender == s.owner, \"Error: sender id not matching survey owner id\");\n        surveys[surveyId].isClosed = true;\n\n        // Distribute rewards\n        for (uint i = 0; i < s.responseIdList.length; i++) {\n            transfer(responses[s.responseIdList[i]].walletId, s.rewardPerUser);\n        }\n\n        // Return remaining reward to user\n        uint remaining = s.depositedReward - s.rewardPerUser * s.responseIdList.length;\n        if (remaining > 0) {\n            transfer(msg.sender, remaining);\n        }\n    }\n\n    // Survey  \n    // 1) Close  \n    // 2) addReponse    \n\n    // Register\n    // Client->Server\n    // Client->Chain \n\n    // Participate\n    // Client->Server\n    // Client->Chain (   max    close  )\n\n\n}",
  "sourcePath": "/Users/bludrimjr/workspace/kaist/2023-spring/web3/truffle-contract/contracts/TrustSurvey.sol",
  "compiler": {
    "name": "solc",
    "version": "0.8.20+commit.a1b79de6.Emscripten.clang"
  },
  "schemaVersion": "3.4.14",
  "updatedAt": "2023-05-22T18:22:02.987Z",
  "devdoc": {
    "kind": "dev",
    "methods": {},
    "version": 1
  },
  "userdoc": {
    "kind": "user",
    "methods": {},
    "version": 1
  }
}