{
  "contractName": "TrustSurvey",
  "abi": [
    {
      "inputs": [],
      "stateMutability": "nonpayable",
      "type": "constructor"
    },
    {
      "inputs": [],
      "name": "owner",
      "outputs": [
        {
          "internalType": "address payable",
          "name": "",
          "type": "address"
        }
      ],
      "stateMutability": "view",
      "type": "function"
    },
    {
      "inputs": [],
      "name": "deposit",
      "outputs": [],
      "stateMutability": "payable",
      "type": "function"
    },
    {
      "inputs": [
        {
          "internalType": "string",
          "name": "surveyId",
          "type": "string"
        },
        {
          "internalType": "string",
          "name": "questionHash",
          "type": "string"
        },
        {
          "internalType": "uint256",
          "name": "reward",
          "type": "uint256"
        },
        {
          "internalType": "uint256",
          "name": "maxRespondent",
          "type": "uint256"
        }
      ],
      "name": "registerSurvey",
      "outputs": [
        {
          "internalType": "bool",
          "name": "",
          "type": "bool"
        }
      ],
      "stateMutability": "payable",
      "type": "function"
    },
    {
      "inputs": [
        {
          "internalType": "string",
          "name": "surveyId",
          "type": "string"
        },
        {
          "internalType": "string",
          "name": "responseHash",
          "type": "string"
        }
      ],
      "name": "participateSurvey",
      "outputs": [
        {
          "internalType": "bool",
          "name": "",
          "type": "bool"
        }
      ],
      "stateMutability": "nonpayable",
      "type": "function"
    },
    {
      "inputs": [
        {
          "internalType": "string",
          "name": "surveyId",
          "type": "string"
        }
      ],
      "name": "closeSurvey",
      "outputs": [],
      "stateMutability": "nonpayable",
      "type": "function"
    },
    {
      "inputs": [
        {
          "internalType": "string",
          "name": "surveyId",
          "type": "string"
        }
      ],
      "name": "getSurveyHash",
      "outputs": [
        {
          "internalType": "string",
          "name": "",
          "type": "string"
        },
        {
          "internalType": "string[]",
          "name": "",
          "type": "string[]"
        }
      ],
      "stateMutability": "view",
      "type": "function"
    }
  ],
  "bytecode": "0x608060405234801561000f575f80fd5b503360035f6101000a81548173ffffffffffffffffffffffffffffffffffffffff021916908373ffffffffffffffffffffffffffffffffffffffff1602179055506126538061005d5f395ff3fe608060405260043610610054575f3560e01c80632180afde14610058578063239bfa6a14610094578063855b6084146100c45780638da5cb5b14610101578063d0e30db01461012b578063edc5fcb814610135575b5f80fd5b348015610063575f80fd5b5061007e600480360381019061007991906118c6565b61015d565b60405161008b9190611956565b60405180910390f35b6100ae60048036038101906100a991906119a2565b610651565b6040516100bb9190611956565b60405180910390f35b3480156100cf575f80fd5b506100ea60048036038101906100e59190611a3e565b61080e565b6040516100f8929190611c02565b60405180910390f35b34801561010c575f80fd5b50610115610bfc565b6040516101229190611c76565b60405180910390f35b610133610c21565b005b348015610140575f80fd5b5061015b60048036038101906101569190611a3e565b610c7b565b005b5f8061016833611070565b8460405160200161017a929190611cc9565b60405160208183030381529060405290505f80808660405161019c9190611cec565b908152602001604051809103902060050154116101ee576040517f08c379a00000000000000000000000000000000000000000000000000000000081526004016101e590611d4c565b60405180910390fd5b5f15155f866040516102009190611cec565b90815260200160405180910390206006015f9054906101000a900460ff16151514610260576040517f08c379a000000000000000000000000000000000000000000000000000000000815260040161025790611db4565b60405180910390fd5b5f80866040516102709190611cec565b90815260200160405180910390206040518060e00160405290815f82015f9054906101000a900473ffffffffffffffffffffffffffffffffffffffff1673ffffffffffffffffffffffffffffffffffffffff1673ffffffffffffffffffffffffffffffffffffffff1681526020016001820180546102ed90611dff565b80601f016020809104026020016040519081016040528092919081815260200182805461031990611dff565b80156103645780601f1061033b57610100808354040283529160200191610364565b820191905f5260205f20905b81548152906001019060200180831161034757829003601f168201915b5050505050815260200160028201805480602002602001604051908101604052809291908181526020015f905b82821015610439578382905f5260205f200180546103ae90611dff565b80601f01602080910402602001604051908101604052809291908181526020018280546103da90611dff565b80156104255780601f106103fc57610100808354040283529160200191610425565b820191905f5260205f20905b81548152906001019060200180831161040857829003601f168201915b505050505081526020019060010190610391565b505050508152602001600382015481526020016004820154815260200160058201548152602001600682015f9054906101000a900460ff16151515158152505090505f5b8160400151518110156104cf576104b2826040015182815181106104a4576104a3611e2f565b5b60200260200101518561122c565b156104bc57600192505b80806104c790611e89565b91505061047d565b505f151582151514610516576040517f08c379a000000000000000000000000000000000000000000000000000000000815260040161050d90611f40565b60405180910390fd5b60405180604001604052803373ffffffffffffffffffffffffffffffffffffffff168152602001868152506001846040516105519190611cec565b90815260200160405180910390205f820151815f015f6101000a81548173ffffffffffffffffffffffffffffffffffffffff021916908373ffffffffffffffffffffffffffffffffffffffff16021790555060208201518160010190816105b891906120fb565b509050505f866040516105cb9190611cec565b908152602001604051809103902060020183908060018154018082558091505060019003905f5260205f20015f90919091909150908161060b91906120fb565b508060a001515f876040516106209190611cec565b908152602001604051809103902060020180549050036106445761064386611284565b5b6001935050505092915050565b5f670de0b6b3a7640000828461066791906121ca565b61067191906121ca565b3410156106b3576040517f08c379a00000000000000000000000000000000000000000000000000000000081526004016106aa90612255565b60405180910390fd5b6106bb611657565b33815f019073ffffffffffffffffffffffffffffffffffffffff16908173ffffffffffffffffffffffffffffffffffffffff1681525050848160200181905250670de0b6b3a76400008461070f91906121ca565b81606001818152505034816080018181525050828160a0018181525050805f8760405161073c9190611cec565b90815260200160405180910390205f820151815f015f6101000a81548173ffffffffffffffffffffffffffffffffffffffff021916908373ffffffffffffffffffffffffffffffffffffffff16021790555060208201518160010190816107a391906120fb565b5060408201518160020190805190602001906107c09291906116a7565b50606082015181600301556080820151816004015560a0820151816005015560c0820151816006015f6101000a81548160ff0219169083151502179055509050506001915050949350505050565b6060805f80846040516108219190611cec565b90815260200160405180910390206005015411610873576040517f08c379a000000000000000000000000000000000000000000000000000000000815260040161086a90611d4c565b60405180910390fd5b5f80846040516108839190611cec565b90815260200160405180910390206040518060e00160405290815f82015f9054906101000a900473ffffffffffffffffffffffffffffffffffffffff1673ffffffffffffffffffffffffffffffffffffffff1673ffffffffffffffffffffffffffffffffffffffff16815260200160018201805461090090611dff565b80601f016020809104026020016040519081016040528092919081815260200182805461092c90611dff565b80156109775780601f1061094e57610100808354040283529160200191610977565b820191905f5260205f20905b81548152906001019060200180831161095a57829003601f168201915b5050505050815260200160028201805480602002602001604051908101604052809291908181526020015f905b82821015610a4c578382905f5260205f200180546109c190611dff565b80601f01602080910402602001604051908101604052809291908181526020018280546109ed90611dff565b8015610a385780601f10610a0f57610100808354040283529160200191610a38565b820191905f5260205f20905b815481529060010190602001808311610a1b57829003601f168201915b5050505050815260200190600101906109a4565b505050508152602001600382015481526020016004820154815260200160058201548152602001600682015f9054906101000a900460ff16151515158152505090505f81604001515167ffffffffffffffff811115610aae57610aad6117a2565b5b604051908082528060200260200182016040528015610ae157816020015b6060815260200190600190039081610acc5790505b5090505f5b826040015151811015610bea57600183604001518281518110610b0c57610b0b611e2f565b5b6020026020010151604051610b219190611cec565b90815260200160405180910390206001018054610b3d90611dff565b80601f0160208091040260200160405190810160405280929190818152602001828054610b6990611dff565b8015610bb45780601f10610b8b57610100808354040283529160200191610bb4565b820191905f5260205f20905b815481529060010190602001808311610b9757829003601f168201915b5050505050828281518110610bcc57610bcb611e2f565b5b60200260200101819052508080610be290611e89565b915050610ae6565b50816020015181935093505050915091565b60035f9054906101000a900473ffffffffffffffffffffffffffffffffffffffff1681565b60035f9054906101000a900473ffffffffffffffffffffffffffffffffffffffff1673ffffffffffffffffffffffffffffffffffffffff163373ffffffffffffffffffffffffffffffffffffffff1614610c79575f80fd5b565b5f8082604051610c8b9190611cec565b90815260200160405180910390206005015411610cdd576040517f08c379a0000000000000000000000000000000000000000000000000000000008152600401610cd490611d4c565b60405180910390fd5b5f8082604051610ced9190611cec565b90815260200160405180910390206040518060e00160405290815f82015f9054906101000a900473ffffffffffffffffffffffffffffffffffffffff1673ffffffffffffffffffffffffffffffffffffffff1673ffffffffffffffffffffffffffffffffffffffff168152602001600182018054610d6a90611dff565b80601f0160208091040260200160405190810160405280929190818152602001828054610d9690611dff565b8015610de15780601f10610db857610100808354040283529160200191610de1565b820191905f5260205f20905b815481529060010190602001808311610dc457829003601f168201915b5050505050815260200160028201805480602002602001604051908101604052809291908181526020015f905b82821015610eb6578382905f5260205f20018054610e2b90611dff565b80601f0160208091040260200160405190810160405280929190818152602001828054610e5790611dff565b8015610ea25780601f10610e7957610100808354040283529160200191610ea2565b820191905f5260205f20905b815481529060010190602001808311610e8557829003601f168201915b505050505081526020019060010190610e0e565b505050508152602001600382015481526020016004820154815260200160058201548152602001600682015f9054906101000a900460ff1615151515815250509050805f015173ffffffffffffffffffffffffffffffffffffffff163373ffffffffffffffffffffffffffffffffffffffff1614610f69576040517f08c379a0000000000000000000000000000000000000000000000000000000008152600401610f60906122e3565b60405180910390fd5b60015f83604051610f7a9190611cec565b90815260200160405180910390206006015f6101000a81548160ff0219169083151502179055505f5b81604001515181101561102f5761101b600183604001518381518110610fcc57610fcb611e2f565b5b6020026020010151604051610fe19190611cec565b90815260200160405180910390205f015f9054906101000a900473ffffffffffffffffffffffffffffffffffffffff1683606001516115a9565b50808061102790611e89565b915050610fa3565b505f816040015151826060015161104691906121ca565b82608001516110559190612301565b90505f81111561106b5761106933826115a9565b505b505050565b60605f602867ffffffffffffffff81111561108e5761108d6117a2565b5b6040519080825280601f01601f1916602001820160405280156110c05781602001600182028036833780820191505090505b5090505f5b6014811015611222575f8160136110dc9190612301565b60086110e891906121ca565b60026110f49190612463565b8573ffffffffffffffffffffffffffffffffffffffff1661111591906124da565b60f81b90505f60108260f81c61112b9190612516565b60f81b90505f8160f81c60106111419190612546565b8360f81c61114f9190612582565b60f81b905061115d8261160b565b8585600261116b91906121ca565b8151811061117c5761117b611e2f565b5b60200101907effffffffffffffffffffffffffffffffffffffffffffffffffffffffffffff191690815f1a9053506111b38161160b565b8560018660026111c391906121ca565b6111cd91906125b6565b815181106111de576111dd611e2f565b5b60200101907effffffffffffffffffffffffffffffffffffffffffffffffffffffffffffff191690815f1a905350505050808061121a90611e89565b9150506110c5565b5080915050919050565b5f8160405160200161123e9190611cec565b60405160208183030381529060405280519060200120836040516020016112659190611cec565b6040516020818303038152906040528051906020012014905092915050565b5f80826040516112949190611cec565b90815260200160405180910390206040518060e00160405290815f82015f9054906101000a900473ffffffffffffffffffffffffffffffffffffffff1673ffffffffffffffffffffffffffffffffffffffff1673ffffffffffffffffffffffffffffffffffffffff16815260200160018201805461131190611dff565b80601f016020809104026020016040519081016040528092919081815260200182805461133d90611dff565b80156113885780601f1061135f57610100808354040283529160200191611388565b820191905f5260205f20905b81548152906001019060200180831161136b57829003601f168201915b5050505050815260200160028201805480602002602001604051908101604052809291908181526020015f905b8282101561145d578382905f5260205f200180546113d290611dff565b80601f01602080910402602001604051908101604052809291908181526020018280546113fe90611dff565b80156114495780601f1061142057610100808354040283529160200191611449565b820191905f5260205f20905b81548152906001019060200180831161142c57829003601f168201915b5050505050815260200190600101906113b5565b505050508152602001600382015481526020016004820154815260200160058201548152602001600682015f9054906101000a900460ff161515151581525050905060015f836040516114b09190611cec565b90815260200160405180910390206006015f6101000a81548160ff0219169083151502179055505f5b8160400151518110156115655761155160018360400151838151811061150257611501611e2f565b5b60200260200101516040516115179190611cec565b90815260200160405180910390205f015f9054906101000a900473ffffffffffffffffffffffffffffffffffffffff1683606001516115a9565b50808061155d90611e89565b9150506114d9565b505f816040015151826060015161157c91906121ca565b826080015161158b9190612301565b90505f8111156115a4576115a2825f0151826115a9565b505b505050565b5f816115b3611650565b10156115bd575f80fd5b8273ffffffffffffffffffffffffffffffffffffffff166108fc8390811502906040515f60405180830381858888f19350505050158015611600573d5f803e3d5ffd5b506001905092915050565b5f600a8260f81c60ff1610156116355760308260f81c61162b91906125e9565b60f81b905061164b565b60578260f81c61164591906125e9565b60f81b90505b919050565b5f47905090565b6040518060e001604052805f73ffffffffffffffffffffffffffffffffffffffff16815260200160608152602001606081526020015f81526020015f81526020015f81526020015f151581525090565b828054828255905f5260205f209081019282156116ed579160200282015b828111156116ec5782518290816116dc91906120fb565b50916020019190600101906116c5565b5b5090506116fa91906116fe565b5090565b5b8082111561171d575f81816117149190611721565b506001016116ff565b5090565b50805461172d90611dff565b5f825580601f1061173e575061175b565b601f0160209004905f5260205f209081019061175a919061175e565b5b50565b5b80821115611775575f815f90555060010161175f565b5090565b5f604051905090565b5f80fd5b5f80fd5b5f80fd5b5f80fd5b5f601f19601f8301169050919050565b7f4e487b71000000000000000000000000000000000000000000000000000000005f52604160045260245ffd5b6117d882611792565b810181811067ffffffffffffffff821117156117f7576117f66117a2565b5b80604052505050565b5f611809611779565b905061181582826117cf565b919050565b5f67ffffffffffffffff821115611834576118336117a2565b5b61183d82611792565b9050602081019050919050565b828183375f83830152505050565b5f61186a6118658461181a565b611800565b9050828152602081018484840111156118865761188561178e565b5b61189184828561184a565b509392505050565b5f82601f8301126118ad576118ac61178a565b5b81356118bd848260208601611858565b91505092915050565b5f80604083850312156118dc576118db611782565b5b5f83013567ffffffffffffffff8111156118f9576118f8611786565b5b61190585828601611899565b925050602083013567ffffffffffffffff81111561192657611925611786565b5b61193285828601611899565b9150509250929050565b5f8115159050919050565b6119508161193c565b82525050565b5f6020820190506119695f830184611947565b92915050565b5f819050919050565b6119818161196f565b811461198b575f80fd5b50565b5f8135905061199c81611978565b92915050565b5f805f80608085870312156119ba576119b9611782565b5b5f85013567ffffffffffffffff8111156119d7576119d6611786565b5b6119e387828801611899565b945050602085013567ffffffffffffffff811115611a0457611a03611786565b5b611a1087828801611899565b9350506040611a218782880161198e565b9250506060611a328782880161198e565b91505092959194509250565b5f60208284031215611a5357611a52611782565b5b5f82013567ffffffffffffffff811115611a7057611a6f611786565b5b611a7c84828501611899565b91505092915050565b5f81519050919050565b5f82825260208201905092915050565b5f5b83811015611abc578082015181840152602081019050611aa1565b5f8484015250505050565b5f611ad182611a85565b611adb8185611a8f565b9350611aeb818560208601611a9f565b611af481611792565b840191505092915050565b5f81519050919050565b5f82825260208201905092915050565b5f819050602082019050919050565b5f82825260208201905092915050565b5f611b4282611a85565b611b4c8185611b28565b9350611b5c818560208601611a9f565b611b6581611792565b840191505092915050565b5f611b7b8383611b38565b905092915050565b5f602082019050919050565b5f611b9982611aff565b611ba38185611b09565b935083602082028501611bb585611b19565b805f5b85811015611bf05784840389528151611bd18582611b70565b9450611bdc83611b83565b925060208a01995050600181019050611bb8565b50829750879550505050505092915050565b5f6040820190508181035f830152611c1a8185611ac7565b90508181036020830152611c2e8184611b8f565b90509392505050565b5f73ffffffffffffffffffffffffffffffffffffffff82169050919050565b5f611c6082611c37565b9050919050565b611c7081611c56565b82525050565b5f602082019050611c895f830184611c67565b92915050565b5f81905092915050565b5f611ca382611a85565b611cad8185611c8f565b9350611cbd818560208601611a9f565b80840191505092915050565b5f611cd48285611c99565b9150611ce08284611c99565b91508190509392505050565b5f611cf78284611c99565b915081905092915050565b7f4572726f723a20737572766579496420646f6573206e6f7420657869737400005f82015250565b5f611d36601e83611a8f565b9150611d4182611d02565b602082019050919050565b5f6020820190508181035f830152611d6381611d2a565b9050919050565b7f4572726f723a2073757276657920697320616c726561647920636c6f736564005f82015250565b5f611d9e601f83611a8f565b9150611da982611d6a565b602082019050919050565b5f6020820190508181035f830152611dcb81611d92565b9050919050565b7f4e487b71000000000000000000000000000000000000000000000000000000005f52602260045260245ffd5b5f6002820490506001821680611e1657607f821691505b602082108103611e2957611e28611dd2565b5b50919050565b7f4e487b71000000000000000000000000000000000000000000000000000000005f52603260045260245ffd5b7f4e487b71000000000000000000000000000000000000000000000000000000005f52601160045260245ffd5b5f611e938261196f565b91507fffffffffffffffffffffffffffffffffffffffffffffffffffffffffffffffff8203611ec557611ec4611e5c565b5b600182019050919050565b7f4572726f723a20526573706f6e64657220616c726561647920706172746963695f8201527f706174696e6720696e2073757276657900000000000000000000000000000000602082015250565b5f611f2a603083611a8f565b9150611f3582611ed0565b604082019050919050565b5f6020820190508181035f830152611f5781611f1e565b9050919050565b5f819050815f5260205f209050919050565b5f6020601f8301049050919050565b5f82821b905092915050565b5f60088302611fba7fffffffffffffffffffffffffffffffffffffffffffffffffffffffffffffffff82611f7f565b611fc48683611f7f565b95508019841693508086168417925050509392505050565b5f819050919050565b5f611fff611ffa611ff58461196f565b611fdc565b61196f565b9050919050565b5f819050919050565b61201883611fe5565b61202c61202482612006565b848454611f8b565b825550505050565b5f90565b612040612034565b61204b81848461200f565b505050565b5b8181101561206e576120635f82612038565b600181019050612051565b5050565b601f8211156120b35761208481611f5e565b61208d84611f70565b8101602085101561209c578190505b6120b06120a885611f70565b830182612050565b50505b505050565b5f82821c905092915050565b5f6120d35f19846008026120b8565b1980831691505092915050565b5f6120eb83836120c4565b9150826002028217905092915050565b61210482611a85565b67ffffffffffffffff81111561211d5761211c6117a2565b5b6121278254611dff565b612132828285612072565b5f60209050601f831160018114612163575f8415612151578287015190505b61215b85826120e0565b8655506121c2565b601f19841661217186611f5e565b5f5b8281101561219857848901518255600182019150602085019450602081019050612173565b868310156121b557848901516121b1601f8916826120c4565b8355505b6001600288020188555050505b505050505050565b5f6121d48261196f565b91506121df8361196f565b92508282026121ed8161196f565b9150828204841483151761220457612203611e5c565b5b5092915050565b7f4572726f723a204e6f7420656e6f7567682072657761726400000000000000005f82015250565b5f61223f601883611a8f565b915061224a8261220b565b602082019050919050565b5f6020820190508181035f83015261226c81612233565b9050919050565b7f4572726f723a2073656e646572206964206e6f74206d61746368696e672073755f8201527f72766579206f776e657220696400000000000000000000000000000000000000602082015250565b5f6122cd602d83611a8f565b91506122d882612273565b604082019050919050565b5f6020820190508181035f8301526122fa816122c1565b9050919050565b5f61230b8261196f565b91506123168361196f565b925082820390508181111561232e5761232d611e5c565b5b92915050565b5f8160011c9050919050565b5f808291508390505b60018511156123895780860481111561236557612364611e5c565b5b60018516156123745780820291505b808102905061238285612334565b9450612349565b94509492505050565b5f826123a1576001905061245c565b816123ae575f905061245c565b81600181146123c457600281146123ce576123fd565b600191505061245c565b60ff8411156123e0576123df611e5c565b5b8360020a9150848211156123f7576123f6611e5c565b5b5061245c565b5060208310610133831016604e8410600b84101617156124325782820a90508381111561242d5761242c611e5c565b5b61245c565b61243f8484846001612340565b9250905081840481111561245657612455611e5c565b5b81810290505b9392505050565b5f61246d8261196f565b91506124788361196f565b92506124a57fffffffffffffffffffffffffffffffffffffffffffffffffffffffffffffffff8484612392565b905092915050565b7f4e487b71000000000000000000000000000000000000000000000000000000005f52601260045260245ffd5b5f6124e48261196f565b91506124ef8361196f565b9250826124ff576124fe6124ad565b5b828204905092915050565b5f60ff82169050919050565b5f6125208261250a565b915061252b8361250a565b92508261253b5761253a6124ad565b5b828204905092915050565b5f6125508261250a565b915061255b8361250a565b92508282026125698161250a565b915080821461257b5761257a611e5c565b5b5092915050565b5f61258c8261250a565b91506125978361250a565b9250828203905060ff8111156125b0576125af611e5c565b5b92915050565b5f6125c08261196f565b91506125cb8361196f565b92508282019050808211156125e3576125e2611e5c565b5b92915050565b5f6125f38261250a565b91506125fe8361250a565b9250828201905060ff81111561261757612616611e5c565b5b9291505056fea2646970667358221220324b9b074b04f9bfa2752d15c674fbf6f382fb377a81d3c5ffa9f3fab57efd2764736f6c63430008140033",
  "immutableReferences": {},
  "source": "// SPDX-License-Identifier: MIT\npragma solidity >=0.8.7;\n\nimport \"hardhat/console.sol\";\n\ncontract TrustSurvey {\n    struct Response {\n        address walletId;\n        string responseHash;\n    }\n    struct Survey {\n        address owner;\n        string questionHash;\n        string[] responseIdList;\n        uint rewardPerUser;\n        uint depositedReward;\n        uint maxRespondent;\n        bool isClosed;\n    }\n\n    // Array of surveys\n    mapping(string => Survey) surveys;\n    mapping(string => Response) responses;\n    uint age;\n    address payable public owner;\n\n    constructor() {\n        owner = payable(msg.sender);\n    }\n\n    function toAsciiString(address x) private pure returns (string memory) {\n        bytes memory s = new bytes(40);\n        for (uint i = 0; i < 20; i++) {\n            bytes1 b = bytes1(uint8(uint(uint160(x)) / (2**(8*(19 - i)))));\n            bytes1 hi = bytes1(uint8(b) / 16);\n            bytes1 lo = bytes1(uint8(b) - 16 * uint8(hi));\n            s[2*i] = char(hi);\n            s[2*i+1] = char(lo);            \n        }\n        return string(s);\n    }\n\n    function char(bytes1 b) private pure returns (bytes1 c) {\n        if (uint8(b) < 10) return bytes1(uint8(b) + 0x30);\n        else return bytes1(uint8(b) + 0x57);\n    }\n\n    function compare(string memory str1, string memory str2) private pure returns (bool) {\n        return keccak256(abi.encodePacked(str1)) == keccak256(abi.encodePacked(str2));\n    }\n\n    function getBalance() private view returns (uint) {\n        return address(this).balance;\n    }\n\n    function deposit() public payable {\n        require(msg.sender == owner);\n    }\n\n\n    function transfer(address _to, uint _value) private returns (bool) {\n        require(getBalance() >= _value);\n        payable(_to).transfer(_value);\n        return true;\n    }\n\n\n    function registerSurvey(string memory surveyId, string memory questionHash, uint reward, uint maxRespondent) public payable returns (bool) {\n        // Check if survey generator is giving enough\n        require(msg.value >= reward * maxRespondent * 1 ether, \"Error: Not enough reward\");\n        // require(msg.value >= reward * maxRespondent, \"Error: Not enough reward\");\n\n\n        Survey memory s;\n        s.owner = msg.sender;\n        s.questionHash = questionHash;\n        s.rewardPerUser = reward * 1 ether;\n        // s.rewardPerUser = reward;\n        s.depositedReward = msg.value;\n        s.maxRespondent = maxRespondent;\n        surveys[surveyId] = s;\n        return true;\n    }\n\n    function participateSurvey(string memory surveyId, string memory responseHash) public returns (bool) {\n        // string memory responseId = string.concat(toString(msg.sender), surveyId);\n        string memory responseId = string.concat(toAsciiString(msg.sender), surveyId);\n        bool responseIdExists = false;\n        require(surveys[surveyId].maxRespondent > 0, \"Error: surveyId does not exist\");\n        require(surveys[surveyId].isClosed == false, \"Error: survey is already closed\");\n        // Check that participant already exists\n\n        Survey memory s = surveys[surveyId];\n\n\n        // Survey memory s = surveys[surveyId];\n        // string[] memory newResponseIdList = new string[](s.responseIdList.length + 1);\n        for (uint i = 0; i < s.responseIdList.length; i++) {\n            if (compare(s.responseIdList[i], responseId)) {\n                responseIdExists = true;\n            }\n        }\n        require(responseIdExists == false, \"Error: Responder already participating in survey\");\n\n        responses[responseId] = Response(msg.sender, responseHash);\n        surveys[surveyId].responseIdList.push(responseId);\n\n        // // Check if survey needs to be closed\n        if (surveys[surveyId].responseIdList.length == s.maxRespondent) {\n            closeSurveyInternal(surveyId);\n        }\n\n        return true;\n    }\n\n    function closeSurveyInternal(string memory surveyId) private {\n        // Check if survey's owner is the caller\n        Survey memory s = surveys[surveyId];\n        surveys[surveyId].isClosed = true;\n\n        // Distribute rewards\n        for (uint i = 0; i < s.responseIdList.length; i++) {\n            transfer(responses[s.responseIdList[i]].walletId, s.rewardPerUser);\n        }\n\n        // Return remaining reward to user\n        uint remaining = s.depositedReward - s.rewardPerUser * s.responseIdList.length;\n        if (remaining > 0) {\n            transfer(s.owner, remaining);\n        }\n    }\n\n    function closeSurvey(string memory surveyId) public {\n        require(surveys[surveyId].maxRespondent > 0, \"Error: surveyId does not exist\");\n        // Check if survey's owner is the caller\n        Survey memory s = surveys[surveyId];\n        require(msg.sender == s.owner, \"Error: sender id not matching survey owner id\");\n        surveys[surveyId].isClosed = true;\n\n        // Distribute rewards\n        for (uint i = 0; i < s.responseIdList.length; i++) {\n            transfer(responses[s.responseIdList[i]].walletId, s.rewardPerUser);\n        }\n\n        // Return remaining reward to user\n        uint remaining = s.depositedReward - s.rewardPerUser * s.responseIdList.length;\n        if (remaining > 0) {\n            transfer(msg.sender, remaining);\n        }\n    }\n\n\n    // Returns questionHash, [response1Hash, response2Hash,...]\n    function getSurveyHash(string memory surveyId) public view returns (string memory, string[] memory) {\n        require(surveys[surveyId].maxRespondent > 0, \"Error: surveyId does not exist\");\n        // Check if survey's owner is the caller\n        Survey memory s = surveys[surveyId];\n\n\n        string[] memory responseHashList = new string[](s.responseIdList.length);\n        for (uint i = 0; i < s.responseIdList.length; i++) {\n            responseHashList[i] = responses[s.responseIdList[i]].responseHash;\n        }\n        return (s.questionHash, responseHashList);\n    }\n\n    // Survey  \n    // 1) Close  \n    // 2) addReponse    \n\n    // Register\n    // Client->Server\n    // Client->Chain \n\n    // Participate\n    // Client->Server\n    // Client->Chain (   max    close  )\n\n\n}",
  "sourcePath": "/Users/bludrimjr/workspace/kaist/2023-spring/web3/truffle-contract/contracts/TrustSurvey.sol",
  "compiler": {
    "name": "solc",
    "version": "0.8.20+commit.a1b79de6.Emscripten.clang"
  },
  "schemaVersion": "3.4.14",
  "updatedAt": "2023-05-29T08:34:26.071Z",
  "devdoc": {
    "kind": "dev",
    "methods": {},
    "version": 1
  },
  "userdoc": {
    "kind": "user",
    "methods": {},
    "version": 1
  }
}